:020000040800F2
:100000007808002055020008F31B00088F1800082C
:10001000F11B000809050008BD1F000800000000D2
:10002000000000000000000000000000171C000895
:100030009D06000800000000151C00089D1C00081B
:100040006F0200086F0200086F0200086F020008CC
:100050006F0200086F0200086F0200086F020008BC
:100060006F0200086F0200086F0200086F020008AC
:100070006F0200080D0500086F0200086F020008FB
:100080006F0200086F0200086F0200086F0200088C
:100090006F0200086F0200086F0200086F0200087C
:1000A0006F0200086F0200086F0200086F0200086C
:1000B0006F0200086F0200086F0200086F0200085C
:1000C0006F0200086F0200086F0200086F0200084C
:1000D0006F020008791F00086F0200086F02000815
:1000E0006F0200086F0200086F0200086F0200082C
:1000F0006F0200086F0200086F020008190500086F
:100100006F0200086F0200086F0200086F0200080B
:100110006F0200086F0200086F0200086F020008FB
:100120006F0200086F0200086F0200086F020008EB
:100130006F0200086F0200086F0200086F020008DB
:100140006F0200086F0200086F0200086F020008CB
:100150006F0200086F0200086F0200086F020008BB
:100160006F0200086F0200086F0200086F020008AB
:100170006F0200086F0200086F0200080000000014
:100180006F0200086F0200086F0200086F0200088B
:100190006F0200086F0200086F0200086F0200087B
:1001A0006F0200086F0200086F02000800F002F8FA
:1001B00000F041F80AA090E8000C82448344AAF1C0
:1001C0000107DA4501D100F036F8AFF2090EBAE8BE
:1001D0000F0013F0010F18BFFB1A43F0010318477B
:1001E000A41F0000C41F0000103A24BF78C878C1C3
:1001F000FAD8520724BF30C830C144BF04680C602D
:10020000704700000023002400250026103A28BF74
:1002100078C1FBD8520728BF30C148BF0B60704778
:10022000642900F07980002070471FB501F098FF25
:100230001FBD10B510BD00F037F91146FFF7F5FFEF
:1002400001F0FAFE00F055F903B4FFF7F2FF03BC2A
:1002500001F0B5FE0948804709480047FEE7FEE780
:10026000FEE7FEE7FEE7FEE7FEE7FEE7FEE7FEE766
:1002700004480549054A064B70470000A11C0008C8
:10028000AD010008780200207808002078040020E2
:1002900078040020704700000FB4044910B503AA89
:1002A000029800F0D3F810BC5DF814FB2000002089
:1002B0002DE9F0410E460446002020622046E16808
:1002C000884730B3252805D0D4E901219047206A1A
:1002D000401CF2E7E168204600278847050018D057
:1002E000A5F14100192802D820354FF400673246A5
:1002F000294620462760FFF793FF40B1012804D02C
:10030000F61D26F007060836D8E7361DD6E728463C
:10031000DAE7206ABDE8F0812DE9F04106460024C5
:1003200010687529314616A510D0AFF3008000285B
:1003300002DA404213A507E031688A0701D512A509
:1003400002E0490704D511A5012401E0AFF30080C4
:1003500000210A2206F1240709E0B0FBF2FCB0FB01
:10036000F2F302FB1C00303078541846491C002878
:10037000F3D123462A463046BDE8F04100F00CB8E0
:10038000000000002D0000002B00000020000000F5
:1003900070477047704770472DE9F0470D46994602
:1003A0009246044600F124080168880604D5E069F5
:1003B00021F01001216000E00120A84201DD471B6F
:1003C00000E00027A1697A1902EB0900081AA06170
:1003D0002078C00602D42046AFF30080002608E053
:1003E000D4E901211AF806009047206A401C761CC7
:1003F00020624E45F4DB2078C0060AD52046AFF3D4
:10040000008006E0D4E9012130209047206A401C9A
:100410002062381EA7F10107F4DC07E0D4E90121CE
:1004200018F805009047206A401C2062281EA5F19C
:100430000105F3DC2046AFF300802078000602D5EA
:100440000220BDE8F0870120FBE70000074B70B5F4
:100450000D467B4400F011F80446284600F020F8D1
:1004600010B14FF0FF3070BD204670BDCF1B0000B3
:1004700001694A1C02610878704700B58FB0CDE968
:1004800001310021059105497944CDE90310114658
:100490006846FFF70DFF0FB000BD0000E5FFFFFF4E
:1004A000007B00F080007047754600F029F8AE46EA
:1004B00005006946534620F00700854618B020B570
:1004C000FFF7D6FEBDE820404FF000064FF00007D2
:1004D0004FF000084FF0000B21F00701AC46ACE8EC
:1004E000C009ACE8C009ACE8C009ACE8C0098D4659
:1004F00070470446AFF300802046FFF7A5FE0000DA
:100500000048704718020020FEE70000014800F094
:10051000F1B8000068010020014800F0EBB80000CD
:10052000C00100202DE9F84F2B480024016841F458
:10053000001101600068224600F40010009021467E
:100540000D2000F0AFFC0D2000F0A0FC00221146B1
:100550002F2000F0A7FC2F2000F098FC204D1F4812
:100560004FF060672860C5E901744FF48068C5E901
:1005700003486C614FF48039AC61C5E907494FF01D
:10058000030AC5E9094AEC6228462C6300F087F8A3
:10059000284600F081F9134E10483563AE63583594
:1005A0007830E5E802074020A5E811010C4845F83D
:1005B00014495830AC61C5E90749C5E9094AEC62FC
:1005C0002C6300F06CF80648583000F065F9F562CD
:1005D000AE63BDE8F88F0000303802404060024052
:1005E0006801002024000020144808B5026800219A
:1005F00042F4001202600068124A00F400100090F9
:100600000F48D0628263104A02604FF0606242601D
:100610004022C0E902211201C0E904219201816156
:10062000C0E907120322C0E90912C162016300F0A8
:1006300036F8BDE80840024800F02EB930380240D4
:10064000C001002024000020B86002400168182387
:10065000CAB2103AB2FBF3F2054B6FF30901032A59
:100660009B5C436500D9091D016508467047000081
:100670006A21000830B50468256825F480252560C6
:10068000046863608368402B036803D09960006846
:10069000C26030BD9A600068C16030BD704770B5FF
:1006A000040025D094F83500022821D02068016884
:1006B00021F0010101602068002505602068456087
:1006C000206885602068C560206805612168212058
:1006D00048612046FFF7BAFF94F854203F2191402B
:1006E0008160E56484F8355084F83450002070BD92
:1006F000012070BD2DE9F041056D0446286894F88D
:100700005420082101FA02F210424FF004074FF082
:10071000000617D020680268520713D5026822F03D
:100720000402026094F854008140A960E06C40F03B
:100730000100E06484F8357084F83460A16C09B17C
:1007400020468847286894F85430524A02FA03F148
:10075000084218D020684169090614D5416921F082
:100760008001416194F8540002FA00F1A960E06C44
:1007700040F00200E06484F8357084F83460A16CC5
:1007800009B1204688472868424A94F85430D21C60
:1007900002FA03F1084218D020680168890714D5CD
:1007A000016821F00201016094F8540002FA00F19E
:1007B000A960E06C40F00400E06484F8357084F8CF
:1007C0003460A16C09B120468847286894F85430F9
:1007D000102202FA03F108421AD0206803681B07AE
:1007E00016D503685F034FF0310327D5A960206851
:1007F0000168090302D484F8353005E0006800037D
:1008000002D5412084F83500216C09B12046884783
:10081000286894F85430202202FA03F1084236D0B6
:1008200020680368DB0632D503685B031CD5A9602A
:100830002068016809030DD4616C0FE00168C905E7
:1008400003D4016821F00801016094F8540082404B
:10085000AA60D0E70068000319D5E16B002916D023
:100860002046BDE8F04108470168C90503D4016886
:1008700021F01001016094F854008240AA60E06CFD
:10088000E064112084F8350084F83460E5E7BDE8C1
:10089000F08100000100800070B504001AD0022031
:1008A000636A84F8350021680A6818480240D4E970
:1008B00001052843D4E90356354328436569284395
:1008C000A5692843E5692843256A28431043042B7A
:1008D00002D005E0012070BDD4E90B231A43104378
:1008E000086022685069616A20F007000843042903
:1008F00001D1A16A084350612046FFF7A7FE0020FE
:10090000E064012084F83500002070BD3F8010F0C5
:1009100070B5044690F8340001281ED0012084F8F8
:100920003400022084F835002068056825F00105B0
:1009300005602046FFF79EFE2068016841F01E0119
:1009400001602068416941F08001416120680168CF
:1009500041F001010160002070BD022070BD000067
:100960002DE9F84FDFF8A091002209F1040A0AF1FD
:10097000040B4FF00F080BF1040E01260B68964094
:100980003340B34271D14C68022C01D0122C11D1EA
:10099000D40800EB84073D6A5407E40E08FA04FC0F
:1009A00025EA0C05D1F810C00CFA04FC4CEA050C41
:1009B000C7F820C007685400032591F804C0A5407B
:1009C0000CF0030CAF430CFA04FC4CEA070CC0F823
:1009D00000C04F68012F05D0022F03D0112F01D086
:1009E000122F11D18768D1F80CC0AF430CFA04FC68
:1009F0004CEA070CC0F808C04768B7430E79C6F345
:100A0000001696403E434660C668AE438D68A540DA
:100A10003543C5604C68E4006FD53C4C256845F40F
:100A200080452560246822F0030504F48044009486
:100A3000374C2E19D6F808789407250F08FA05F4D4
:100A4000A743344CA04201D100242EE0324CA042F6
:100A500001D1012429E0314CA04201D1022424E03B
:100A60002F4CA04202D103241FE046E02D4CA042AF
:100A700001D1042419E02C4CA04201D1052414E03A
:100A80002A4CA04201D106240FE0294CA04201D1FA
:100A900007240AE0274CA04201D1082405E0264C97
:100AA000A04201D1092400E00A24AC403C43C6F82E
:100AB0000848D9F800404D464E689C43F60300D5DF
:100AC0001C432C60DAF8004055464E689C43B60340
:100AD00000D51C432C60DBF800405D464E689C430B
:100AE000F60200D51C432C60DEF8004075464E68C7
:100AF0009C43B60200D51C432C60521C102AFFF404
:100B00003CAFBDE8F88F0000003C01404438024093
:100B10000030014000000240000402400008024092
:100B2000000C024000100240001402400018024075
:100B3000001C0240002002400024024001480068DE
:100B400070470000140000207047000070B50400DA
:100B500004D094F83500002510B106E0012070BDE6
:100B600084F83450204600F03FF9022084F8350024
:100B70002068016821F00101016000F027FB314984
:100B80002268B0FBF1F151602F4A6368934206D9A5
:100B90004FF4967359434FF47A73B1FBF3F1236822
:100BA000491C1962616891420BD84900B0FBF1F20F
:100BB000C2F30B02042A01D2042019E0B0FBF1F0C9
:100BC00016E0A26882B301EBC10303EB0113B0FB93
:100BD000F3F343F480431B052CD06AB301EBC1024D
:100BE00002EB0111B0FBF1F040F4804040F4004012
:100BF0002168C861D4E90701084321680860D4E985
:100C00000310084321688860D4E90501084321687E
:100C1000C8602068016841F001010160A5630120FE
:100C200084F83500002070BDFFE701EB4103B0FB05
:100C3000F3F3D0E70120DBE701EB4101B0FBF1F07A
:100C4000D4E7000040420F00A086010070477047C3
:100C50002DE9F84F0446DDE90A6590F8350098461D
:100C600091468A46012858D14EB145B142F21073DF
:100C700001222B49204600F021FFA0BB02E0012009
:100C8000BDE8F88F94F83400012846D0012084F89C
:100C900034002068016821F400610160422084F87A
:100CA00035000027A763666225856585216B1D4891
:100CB0002B46C863216B1C48324688642168206B30
:100CC0001031FFF725FE2320009043464A46514647
:100CD000204600F03BFE38B1A06B84F83470042845
:100CE000CDD00320CCE718E02068012D10D041685A
:100CF00041F4805141602068416841F400614160E5
:100D0000206841698069009084F834700020B7E75A
:100D1000016821F480610160EDE70220B0E7000086
:100D200002001000B7180008911800082DE9F84FCC
:100D30000446DDE90A6590F83500984691468A46F2
:100D4000012848D14EB145B142F210730122234926
:100D5000204600F0B3FEA0BB02E00120BDE8F88F02
:100D600094F83400012836D0012084F8340020683B
:100D7000016821F400610160322084F83500002709
:100D8000A763666225856585E16A15482B46C863B9
:100D9000E16A14488864226831461032E06AFFF73D
:100DA000B7FD2320009043464A465146204600F0B6
:100DB0003DFE38B1A06B84F834700428CDD00320F8
:100DC000CCE708E02068416841F40061416084F8A4
:100DD00034700020C2E70220C0E7000002001000CB
:100DE000FD180008911800080C4800B5016887B08C
:100DF00041F0800101600068694600F080000590C4
:100E000030200090122001900220039004200490D2
:100E10000348FFF7A5FD07B000BD000030380240D1
:100E2000001C024002480168491C01607047000034
:100E3000140000200B4810B5016841F400710160F6
:100E4000016841F480610160016841F480710160D2
:100E5000052000F047F80F2000F006F800F015F824
:100E6000002010BD003C024010B5044600F094F98B
:100E70004FF47A71B0FBF1F000F0A8FB002221469C
:100E8000501E00F00FF8002010BD704700F01F0248
:100E9000012191404009800000F1E020C0F80011DC
:100EA00070470000F0B40E4B1B68C3F30223C3F17C
:100EB0000704042C00D904241D1D072D01D2002392
:100EC00000E0DB1E012606FA04F56D1E0D409D4074
:100ED0009E40761E164045EA0601F0BC00F08ABE30
:100EE0000CED00E0064A00F0070110684FF6FF0322
:100EF000184040EA01200349084310607047000091
:100F00000CED00E00000FA052DE9F8431D480168EA
:100F100041F0805101600068012700F0805000908E
:100F2000380490FAA0F0DFF86080B0FA80F048F85A
:100F30002070FFF703FE04464FF47A75134E04E069
:100F4000FFF7FCFD001BA84213D87068C003F7D55B
:100F50004FF4003090FAA0F0B0FA80F048F820701A
:100F6000FFF7ECFD044607E0FFF7E8FD001BA84291
:100F700002D90320BDE8F88370688003F4D500200F
:100F8000F8E700004038024000000E4200700040C8
:100F90002DE9F05FDFF8F8A104460F46DAF800000B
:100FA000DFF8F08100F00F02C8B27A49814641F2C1
:100FB000883608F10808BA4261D202468AF8002051
:100FC000DAF8000000F00F00B8427DD120788007E9
:100FD00007D5D8F80020A36822F0F0021A43C8F819
:100FE00000202078C0072DD0606801281AD0022880
:100FF0001BD0032819D009688907002964DAD8F8BA
:101000000010474621F003010143C8F80010FFF724
:1010100095FD0546606801280FD0022818D00328E6
:101020001CD027E009688903E7E709688901E4E73C
:10103000FFF784FD401BB04258D83868C0F38100E8
:101040000128F5D188E0FFF779FD401BB0424DD86B
:101050003868C0F381000228F5D17DE03868FFF7D9
:101060006DFD401BB042F9D940E0FFF767FD401B22
:10107000B0423BD8386810F00C0FF6D16CE0207805
:10108000800707D5D8F80020A36822F0F0021A43A1
:10109000C8F800202078C0074CD06068012828D00C
:1010A000022829D0032827D009688907002949DAAE
:1010B000D8F8002022F003020243C8F80020FFF70E
:1010C0003DFD0546606800E03CE001281DD0022897
:1010D00029D0032838D0B3464646306810F00C0FAC
:1010E00028D0FFF72BFD411B5945F6D90320BDE859
:1010F000F09F09688903D9E709688901D6E7FFF7F6
:101100001DFD411B594502D9F0E7B34646463068FC
:10111000C0F381000128F2D10CE0FFF70FFD411B65
:10112000594502D9E2E7B34646463068C0F381002C
:101130000228F2D18AF80090DAF8000000F00F00DF
:10114000B84209D00120D2E744462068FFF7F6FCF8
:10115000401BB042F9D9C9E72078400707D5D8F835
:101160000010E26821F4E0511143C8F80010207823
:10117000000708D5D8F80010226921F4604141EA3F
:10118000C201C8F800100F20FFF76EFE0020AEE786
:10119000003C02400038024010B500F043F8084916
:1011A0000968F02292FAA2F201F0F001B2FA82F29A
:1011B000D140044A515CC8400349086010BD00009A
:1011C00008380240722100080000002010B5FFF727
:1011D000E3FF074909684FF4E05292FAA2F201F4E2
:1011E000E051B2FA82F2D140024A515CC84010BDCF
:1011F000083802407221000810B5FFF7CDFF0749FB
:1012000009684FF4604292FAA2F201F46041B2FA26
:1012100082F2D140024A515CC84010BD08380240F9
:101220007221000830B51948006810F00C01184808
:1012300012D0184C04290ED008290DD1134A121FC0
:101240001168136801F03F015D0247F6C07304D5D1
:10125000B4FBF1F003E0204630BDB0FBF1F01168C3
:10126000194093FAA3F3B3FA83F3D94048431168C2
:101270004FF4403292FAA2F201F44031B2FA82F213
:10128000D140491C4900B0FBF1F030BD08380240A4
:101290000024F40040787D012DE9F84F04460078E1
:1012A000DFF8FCA2BF4DC0074FF0000648D0DAF8C7
:1012B00000105046C1F38101012908D00068C0F335
:1012C000810002280AD1281D0068400206D528683E
:1012D000800335D56068002873D031E0DFF8C49210
:1012E00009F1020989F80060FFF728FC074641F27E
:1012F000883804E0FFF722FCC11B41457AD82868F2
:101300008003F7D4207989F80000606860B1FFF7A6
:1013100015FC074604E0FFF711FCC11B4145EDD861
:1013200028688003F7D50BE0FFF708FC074604E0C8
:10133000FFF704FCC11B4145E0D828688003F7D4BF
:101340002078DFF86492800744D5DAF80010504620
:1013500011F00C0F4FF0F80809D00068C0F38100BD
:1013600002280BD18E48001F0068400206D428686E
:10137000800714D5E068012823D110E0E068D0B1DF
:101380000120C9F80000FFF7D9FB074604E0FFF78A
:10139000D5FBC01B6428B1D828688007F7D528681A
:1013A00098FAA8F22169B2FA82F220F0F80091408E
:1013B000084328600EE0C9F80060FFF7BFFB07464E
:1013C00005E0EAE0FFF7BAFBC01B642812D82868E2
:1013D0008007F7D42078000725D5DFF8C48173484B
:1013E000616908F16C0881B101210160FFF7A6FB7A
:1013F000074605E07EE0FFF7A1FBC01B642879D813
:10140000D8F800008007F6D50DE00660FFF796FBE0
:10141000074604E0FFF792FBC01B64286AD8D8F89F
:1014200000008007F6D42078400753D55C48383058
:10143000016841F0805101600068DFF8748100F0BC
:1014400080500090D8F8001041F48071C8F8001066
:10145000FFF774FB074604E0FFF770FBC01B64282E
:1014600048D8D8F80000C005F6D5DFF834B10BF144
:10147000680B8BF80060FFF761FB074641F2883884
:1014800004E0FFF75BFBC11B41457ED8DBF80000A1
:101490008007F6D4207A8BF80000A06868B1FFF7C7
:1014A0004DFB074604E0FFF749FBC11B41456CD8E3
:1014B000DBF800008007F6D50CE0FFF73FFB07469E
:1014C00004E0FFF73BFBC11B41455ED8DBF80000A1
:1014D0008007F6D4A069E8B3DAF80010C1F38101FF
:1014E00002295AD0022806D0C9F86060FFF726FB0F
:1014F00004464DE049E04F46C9F86060FFF71EFB27
:10150000064604E0FFF71AFB801B64283DD82868D4
:101510008001F7D4D4E90701084347F6C07191FA76
:10152000A1F1626AB1FA81F18A40A16A4FF0FF33FA
:1015300003EB51014FF4403393FAA3F3B3FA83F36F
:1015400099400A4310434FF0706292FAA2F2B2FA45
:1015500082F200E01FE0E16A914008431049091F50
:10156000086001203866FFF7E9FA044604E0FFF757
:10157000E5FA001B642808D828688001F7D50AE03E
:10158000FFF7DCFA001B642802D90320BDE8F88FBE
:1015900028688001F4D40020F8E70120F6E7000075
:1015A000083802400038024000004742800E47429F
:1015B000007000404FF0E0210428086903D020F0BB
:1015C00004000861704740F00400FAE710B5401EBF
:1015D000B0F1807F01D3012010BD4FF0E0246061A5
:1015E0000F21601700F006FB0020A061072020619A
:1015F000002010BD704790F83900704738B5016879
:1016000004460868CA68C0F3000002F4807238B16A
:1016100032B1086848680090E06B40F00100E06378
:1016200008684A69C0F3400002F0010238B132B1E3
:10163000086848680090E06B40F00400E0630868C8
:101640004A69C0F3800002F0010238B132B1086883
:1016500048680090E06B40F00200E06308684A6967
:10166000C0F3C00002F0010238B132B10868486826
:101670000090E06B40F00800E0630868C968C0F3C0
:10168000401001F0200118B111B1204600F032FBEA
:1016900020680168C068C1F3C01100F0800019B172
:1016A00010B1204600F034FC21680868CA68C0F315
:1016B000801002F04002012568B162B1CA6820467C
:1016C00022F04002CA6094F8391032290CD080F818
:1016D000395000F0DBF8E06B002804D084F8395072
:1016E0002046FFF787FF38BD222180F83910F0E748
:1016F00070B5040004D094F83900002510B106E05C
:10170000012070BD84F83850204600F021F80220F6
:1017100084F839002068C16821F40051C160204676
:1017200000F03CFB2068016921F4904101612068D0
:10173000416921F02A0141612068C16841F40051EA
:10174000C160E563012084F83900002070BD00000D
:1017500010B500681A4986B088422FD1194801682F
:1017600041F001010160006800F00100059015489A
:101770001430016841F0100101600068012100F09F
:10178000100005904FF4007000900220CDE9010197
:10179000039007200C4C049069462046FFF7E0F8C0
:1017A0002115009169462046FFF7DAF82520FFF75A
:1017B0006DFB032211462520FFF774FB06B010BD18
:1017C00000100140303802400000024090F83930EB
:1017D000012B01D0122B2BD131B32AB390F8383022
:1017E000012B25D0012380F8383081628285C285A3
:1017F0000022C26390F83910122917D0222180F8F4
:1018000039100168CB6843F48073CB6001684B6981
:1018100043F001034B6180F838200068C16841F053
:101820002001C16000207047012070473221E6E7A7
:101830000220704730B50068114988420CD1114A26
:101840005088010408D41146440409784FF000037D
:1018500006D50A2901D0538030BD40F400400DE088
:101860000D2909D0C0F30D04074D401C80B2295545
:101870005080C728EFD830BD40F48040508030BD44
:10188000001001401C000020600000207047FEE7AF
:1018900010B5806B01680A6822F480620A6000213A
:1018A0004185012180F83510816B41F01001816381
:1018B000FFF74AF910BD10B5806B01680A6822F481
:1018C00080620A6001680A6842F400720A60016876
:1018D0004A6822F480524A6001684A6822F4006231
:1018E0004A6000214185012180F83510816B11B1DA
:1018F000FFF72AF910BDFFF7A9F910BD10B5846BE9
:10190000232300221049204600F0D8F818B1A06B1C
:1019100040F02000A0632068016841F4007101607C
:101920002068416821F40061416000206085012049
:1019300084F83500A06B0028204602D0FFF704F998
:1019400010BDFFF784F910BD040001002DE9F84F28
:10195000044600680F4698460168164641F48061C7
:1019600001602068016841F4807101604FF0011945
:101970000022494620460A9B00F0A0F8E8BB2168F7
:1019800007F0FE00086109F1010A514620460A9A53
:1019900000F0D9F818B1A06B042842D031E02068DB
:1019A000416980690090DFF880B0002259462046E6
:1019B0000A9B00F083F800BBF5B2B8F1010F09D023
:1019C0002168300A08610022594620460A9B00F02F
:1019D00075F890B9206805610022594620460A9B97
:1019E00000F06CF848B92068016841F4807101602A
:1019F0000022494620460A9B00E002E000F05EF823
:101A000010B10320BDE8F88F2168F8B240F0010062
:101A10000861514620460A9A00F095F80028BAD18C
:101A2000F0E70120EEE70000800001002DE9F84317
:101A3000044600680D46DDF8209001689846164679
:101A400041F4807101604B4600224FF001112046A5
:101A500000F034F850BB216805F0FE0008614A46EA
:101A60001549204600F06FF828B1A06B04281DD15D
:101A70000120BDE8F8832068416980690E4F00901D
:101A80007E374B4600223946204600F017F868B9E9
:101A9000F5B2B8F1010F0BD02168300A08614B464E
:101AA00000223946204600F009F808B10320E0E79B
:101AB000206805610020DCE7020001002DE9F04705
:101AC0001C4690460E460546FFF738F807465FEA83
:101AD00008004FF000094FF0010AC6F3074808D08C
:101AE00023E0601C05D0CCB1FFF728F8C01BA04252
:101AF00014D82868B8F1010F06D0806926EA0000E2
:101B00000004000C1BD0ECE74069F7E7601C0CD028
:101B100024B1FFF713F8C01BA04206D985F835A001
:101B200085F834900320BDE8F0872868B8F1010FEC
:101B300007D0806926EA00000004000CE6D00020EF
:101B4000F1E74069F6E72DE9F04715460E460446F1
:101B5000FEF7F4FF07464FF0000A4FF00109C6F305
:101B6000074824E020684069C043400511D420683C
:101B7000016841F40071016021686FF48060486180
:101B80000420A06384F8359084F834A00120BDE8D7
:101B9000F087681C0BD025B1FEF7D0FFC01BA84210
:101BA00005D984F8359084F834A00320EFE7206845
:101BB000B8F1010F06D0806926EA00000004000C8D
:101BC000E5D0CFE74069F7E70748064901600749D4
:101BD00041604FF48041016100214161C1610162B6
:101BE000FEF7B4BF005800402400002040420F0020
:101BF000FEE770470907090E002806DA00F00F001B
:101C000000F1E02080F8141D704700F1E02080F81A
:101C1000001470477047704770B51E4C92B0002595
:101C2000266846F080562660246804F0805411949B
:101C3000194C266846F44046266024680DF1240CB1
:101C400004F4404411940124009401940224069465
:101C50008CE80D006605CDE907616846FFF71CFBBF
:101C600000B1FEE7FFF750F900B1FEE70CA90F2025
:101C700081E831004FF4A0500F904FF48050109045
:101C800005210CA8FFF784F9002800D0FEE712B068
:101C900070BD00004038024000700040FFF7C2B83D
:101CA0001048016841F4700101600F48016841F07B
:101CB000010101600C4A00210832116002680B4BDF
:101CC0001A400260031D0A4A1A60026822F4802248
:101CD000026005480C3001600249580680390860EE
:101CE0007047000088ED00E000380240FFFFF6FE7C
:101CF0001030002410B590F83910222903D0322971
:101D000001D0022010BD8168B1F5805F11D001695A
:101D1000002901681FD0496801F07F03816A4A1CCD
:101D200082620B70C18D491E0904090CC18518D04F
:101D30002FE00269816A002A0268526805D0D2B297
:101D40000A80816A491C8162ECE7C2F308020A80BA
:101D5000816A891CF7E74A68816A4B1C83620A70B2
:101D6000E0E70168CA6822F02002CA6090F83910E2
:101D7000322910D00168CA6822F48072CA600168F2
:101D80004A6922F001024A61012180F83910FFF707
:101D900051FD002010BD1221F7E700002DE9F041B0
:101DA000044600680169E26821F440510A43026177
:101DB0002068C16849F20C6291432369A268E56911
:101DC0001A4363692B431A430A43C260206841697E
:101DD00021F44072A16911434161E0696426322512
:101DE000B0F5004F484A494920681DD0884201D0CB
:101DF000904269D1FFF700FA00EBC00101EB00103F
:101E00006168B0468900B0FBF1F1B1FBF8F6FFF76D
:101E1000F3F900EBC00101EB001061688900B0FB31
:101E2000F1F7FFF7E9F968E0884201D0904219D153
:101E3000FFF7E2F900EBC00101EB00106168B0466A
:101E40004900B0FBF1F1B1FBF8F6FFF7D5F900EB73
:101E5000C00101EB001061684900B0FBF1F7FFF72A
:101E6000CBF918E0FFF7B2F900EBC00101EB00106D
:101E70006168B0464900B0FBF1F1B1FBF8F6FFF73D
:101E8000A5F900EBC00101EB001061684900B0FB4F
:101E9000F1F7FFF79BF900EBC00101EB001061685F
:101EA0004900B0FBF1F1B1FBF8F06FF018014843C5
:101EB00007EB800005EB0011B1FBF8F0216866F339
:101EC0001F108860BDE8F081FFF780F900EBC001CA
:101ED00001EB00106168B0468900B0FBF1F1B1FB85
:101EE000F8F6FFF773F900EBC00101EB0010616831
:101EF0008900B0FBF1F7FFF769F900EBC00101EBD6
:101F0000001061688900CCE7001401400010014016
:101F100090F83910122903D0322901D002207047DD
:101F20008168B1F5805F016A0BD04A1C02620268C9
:101F300009785160C18C491E0904090CC1840ED076
:101F400017E009880268C1F308015160016900299E
:101F5000016A02D0491C0162ECE7891CFBE70168B9
:101F6000CA6822F08002CA600068C16841F040017E
:101F7000C16000207047000070B500240C4D0D4872
:101F8000FFF73CFB02E0641CAC4204D80948FFF7B1
:101F900032FB0128F7D1002402E0641CAC4206D8D1
:101FA000012205490348FFF711FC0028F5D170BD57
:101FB000FFFF0100280100201C000020FEE7704701
:101FC00010B504460420FFF7F5FA0148046010BD7F
:101FD0001800002070B5054600244FF47A7603E01F
:101FE000304600F005F8641CAC42F9D370BD000027
:101FF00070B54FF0E02500216C69094AAB691268A1
:102000005043AA699A42FCD002D2A3EB020302E039
:10201000A4EB02063344194413468142F1D370BD48
:102020001800002003490A685206FCD5C2B24A6073
:1020300070470000001001401FB500263446FEF72F
:10204000F9FE0823022219214FF4B470FFF7E4FDD2
:102050002348016841F480010160006800F48000B9
:102060000090B420FFF7ACFF4FF4E13000F05CF8D3
:10207000FFF7AAFDFEF7B8FAFEF754FA04208DF830
:102080000C0003208DF80800012503A8CDE9000508
:1020900001230022A0211348FEF748FEC8B12146C3
:1020A00011A0FEF7F9F80120FFF794FF02A8CDE98F
:1020B000000501230022A0210A48FEF7C9FD58B1FE
:1020C000641C21460BA0FEF7E7F80120FFF782FF12
:1020D000DBE731460BA0E4E79DF808100DA0F2E71E
:1020E00040380240240000206661696C3A25640D86
:1020F0000A00000052656164206661696C3A2564DB
:102100000D0A0000737563636573733A25640D0AE5
:10211000000000005265616420737563636573732A
:102120003A25640D0A0000000B4910B5094AC1E9BF
:10213000002000208860C860086188610C20486128
:102140000846FFF7D5FABDE81040012203490248CE
:10215000FFF73CBB00100140280100201C000020BC
:102160004FF04070E1EE100A7047000610160006AE
:102170001016000000000102030401020304060718
:1021800008090000A421000800000020240000002D
:10219000E8010008C82100082400002054080000BD
:1021A000040200080024F400000000000000000009
:1021B00001020304060708090000000000000000F7
:0821C000000000000000000017
:04000005080001AD41
:00000001FF
